{"abi":[{"type":"constructor","inputs":[],"stateMutability":"nonpayable"},{"type":"function","name":"balanceOf","inputs":[{"name":"account","type":"address","internalType":"address"},{"name":"id","type":"uint256","internalType":"uint256"}],"outputs":[{"name":"","type":"uint256","internalType":"uint256"}],"stateMutability":"view"},{"type":"function","name":"balanceOfBatch","inputs":[{"name":"accounts","type":"address[]","internalType":"address[]"},{"name":"ids","type":"uint256[]","internalType":"uint256[]"}],"outputs":[{"name":"","type":"uint256[]","internalType":"uint256[]"}],"stateMutability":"view"},{"type":"function","name":"batchBalance","inputs":[{"name":"account","type":"address","internalType":"address"},{"name":"tokenId","type":"uint256","internalType":"uint256"}],"outputs":[{"name":"","type":"uint256","internalType":"uint256"}],"stateMutability":"view"},{"type":"function","name":"batchIdToTokenId","inputs":[{"name":"","type":"string","internalType":"string"}],"outputs":[{"name":"","type":"uint256","internalType":"uint256"}],"stateMutability":"view"},{"type":"function","name":"batches","inputs":[{"name":"","type":"uint256","internalType":"uint256"}],"outputs":[{"name":"batchId","type":"string","internalType":"string"},{"name":"quantity","type":"uint256","internalType":"uint256"},{"name":"metadata","type":"string","internalType":"string"},{"name":"ipfsCid","type":"string","internalType":"string"},{"name":"createdAt","type":"uint256","internalType":"uint256"},{"name":"exists","type":"bool","internalType":"bool"},{"name":"isAggregated","type":"bool","internalType":"bool"}],"stateMutability":"view"},{"type":"function","name":"burnBatch","inputs":[{"name":"tokenId","type":"uint256","internalType":"uint256"},{"name":"amount","type":"uint256","internalType":"uint256"}],"outputs":[],"stateMutability":"nonpayable"},{"type":"function","name":"getBatchMetadata","inputs":[{"name":"tokenId","type":"uint256","internalType":"uint256"}],"outputs":[{"name":"","type":"tuple","internalType":"struct CoffeeBatchToken.BatchMetadata","components":[{"name":"batchId","type":"string","internalType":"string"},{"name":"quantity","type":"uint256","internalType":"uint256"},{"name":"metadata","type":"string","internalType":"string"},{"name":"ipfsCid","type":"string","internalType":"string"},{"name":"createdAt","type":"uint256","internalType":"uint256"},{"name":"exists","type":"bool","internalType":"bool"},{"name":"isAggregated","type":"bool","internalType":"bool"},{"name":"childTokenIds","type":"uint256[]","internalType":"uint256[]"}]}],"stateMutability":"view"},{"type":"function","name":"getChildTokenIds","inputs":[{"name":"tokenId","type":"uint256","internalType":"uint256"}],"outputs":[{"name":"","type":"uint256[]","internalType":"uint256[]"}],"stateMutability":"view"},{"type":"function","name":"getTokenIdByBatchId","inputs":[{"name":"batchIdStr","type":"string","internalType":"string"}],"outputs":[{"name":"","type":"uint256","internalType":"uint256"}],"stateMutability":"view"},{"type":"function","name":"isApprovedForAll","inputs":[{"name":"account","type":"address","internalType":"address"},{"name":"operator","type":"address","internalType":"address"}],"outputs":[{"name":"","type":"bool","internalType":"bool"}],"stateMutability":"view"},{"type":"function","name":"isContainer","inputs":[{"name":"tokenId","type":"uint256","internalType":"uint256"}],"outputs":[{"name":"","type":"bool","internalType":"bool"}],"stateMutability":"view"},{"type":"function","name":"mintBatch","inputs":[{"name":"recipient","type":"address","internalType":"address"},{"name":"quantity","type":"uint256","internalType":"uint256"},{"name":"batchIdStr","type":"string","internalType":"string"},{"name":"metadata","type":"string","internalType":"string"},{"name":"ipfsCid","type":"string","internalType":"string"}],"outputs":[{"name":"","type":"uint256","internalType":"uint256"}],"stateMutability":"nonpayable"},{"type":"function","name":"mintContainer","inputs":[{"name":"recipient","type":"address","internalType":"address"},{"name":"quantity","type":"uint256","internalType":"uint256"},{"name":"batchIdStr","type":"string","internalType":"string"},{"name":"metadata","type":"string","internalType":"string"},{"name":"ipfsCid","type":"string","internalType":"string"},{"name":"childTokenIds","type":"uint256[]","internalType":"uint256[]"},{"name":"childHolders","type":"address[]","internalType":"address[]"}],"outputs":[{"name":"","type":"uint256","internalType":"uint256"}],"stateMutability":"nonpayable"},{"type":"function","name":"owner","inputs":[],"outputs":[{"name":"","type":"address","internalType":"address"}],"stateMutability":"view"},{"type":"function","name":"renounceOwnership","inputs":[],"outputs":[],"stateMutability":"nonpayable"},{"type":"function","name":"safeBatchTransferFrom","inputs":[{"name":"from","type":"address","internalType":"address"},{"name":"to","type":"address","internalType":"address"},{"name":"ids","type":"uint256[]","internalType":"uint256[]"},{"name":"values","type":"uint256[]","internalType":"uint256[]"},{"name":"data","type":"bytes","internalType":"bytes"}],"outputs":[],"stateMutability":"nonpayable"},{"type":"function","name":"safeTransferFrom","inputs":[{"name":"from","type":"address","internalType":"address"},{"name":"to","type":"address","internalType":"address"},{"name":"id","type":"uint256","internalType":"uint256"},{"name":"value","type":"uint256","internalType":"uint256"},{"name":"data","type":"bytes","internalType":"bytes"}],"outputs":[],"stateMutability":"nonpayable"},{"type":"function","name":"setApprovalForAll","inputs":[{"name":"operator","type":"address","internalType":"address"},{"name":"approved","type":"bool","internalType":"bool"}],"outputs":[],"stateMutability":"nonpayable"},{"type":"function","name":"supportsInterface","inputs":[{"name":"interfaceId","type":"bytes4","internalType":"bytes4"}],"outputs":[{"name":"","type":"bool","internalType":"bool"}],"stateMutability":"view"},{"type":"function","name":"transferBatch","inputs":[{"name":"from","type":"address","internalType":"address"},{"name":"to","type":"address","internalType":"address"},{"name":"tokenId","type":"uint256","internalType":"uint256"},{"name":"amount","type":"uint256","internalType":"uint256"}],"outputs":[],"stateMutability":"nonpayable"},{"type":"function","name":"transferOwnership","inputs":[{"name":"newOwner","type":"address","internalType":"address"}],"outputs":[],"stateMutability":"nonpayable"},{"type":"function","name":"uri","inputs":[{"name":"tokenId","type":"uint256","internalType":"uint256"}],"outputs":[{"name":"","type":"string","internalType":"string"}],"stateMutability":"view"},{"type":"event","name":"ApprovalForAll","inputs":[{"name":"account","type":"address","indexed":true,"internalType":"address"},{"name":"operator","type":"address","indexed":true,"internalType":"address"},{"name":"approved","type":"bool","indexed":false,"internalType":"bool"}],"anonymous":false},{"type":"event","name":"BatchBurned","inputs":[{"name":"tokenId","type":"uint256","indexed":true,"internalType":"uint256"},{"name":"from","type":"address","indexed":true,"internalType":"address"},{"name":"amount","type":"uint256","indexed":false,"internalType":"uint256"}],"anonymous":false},{"type":"event","name":"BatchMinted","inputs":[{"name":"tokenId","type":"uint256","indexed":true,"internalType":"uint256"},{"name":"batchId","type":"string","indexed":false,"internalType":"string"},{"name":"recipient","type":"address","indexed":true,"internalType":"address"},{"name":"quantity","type":"uint256","indexed":false,"internalType":"uint256"},{"name":"metadata","type":"string","indexed":false,"internalType":"string"}],"anonymous":false},{"type":"event","name":"BatchTransferred","inputs":[{"name":"tokenId","type":"uint256","indexed":true,"internalType":"uint256"},{"name":"from","type":"address","indexed":true,"internalType":"address"},{"name":"to","type":"address","indexed":true,"internalType":"address"},{"name":"amount","type":"uint256","indexed":false,"internalType":"uint256"}],"anonymous":false},{"type":"event","name":"ContainerMinted","inputs":[{"name":"tokenId","type":"uint256","indexed":true,"internalType":"uint256"},{"name":"batchId","type":"string","indexed":false,"internalType":"string"},{"name":"recipient","type":"address","indexed":true,"internalType":"address"},{"name":"quantity","type":"uint256","indexed":false,"internalType":"uint256"},{"name":"childTokenIds","type":"uint256[]","indexed":false,"internalType":"uint256[]"}],"anonymous":false},{"type":"event","name":"OwnershipTransferred","inputs":[{"name":"previousOwner","type":"address","indexed":true,"internalType":"address"},{"name":"newOwner","type":"address","indexed":true,"internalType":"address"}],"anonymous":false},{"type":"event","name":"TransferBatch","inputs":[{"name":"operator","type":"address","indexed":true,"internalType":"address"},{"name":"from","type":"address","indexed":true,"internalType":"address"},{"name":"to","type":"address","indexed":true,"internalType":"address"},{"name":"ids","type":"uint256[]","indexed":false,"internalType":"uint256[]"},{"name":"values","type":"uint256[]","indexed":false,"internalType":"uint256[]"}],"anonymous":false},{"type":"event","name":"TransferSingle","inputs":[{"name":"operator","type":"address","indexed":true,"internalType":"address"},{"name":"from","type":"address","indexed":true,"internalType":"address"},{"name":"to","type":"address","indexed":true,"internalType":"address"},{"name":"id","type":"uint256","indexed":false,"internalType":"uint256"},{"name":"value","type":"uint256","indexed":false,"internalType":"uint256"}],"anonymous":false},{"type":"event","name":"URI","inputs":[{"name":"value","type":"string","indexed":false,"internalType":"string"},{"name":"id","type":"uint256","indexed":true,"internalType":"uint256"}],"anonymous":false},{"type":"error","name":"BatchDoesNotExist","inputs":[{"name":"tokenId","type":"uint256","internalType":"uint256"}]},{"type":"error","name":"BatchIdAlreadyExists","inputs":[{"name":"batchId","type":"string","internalType":"string"}]},{"type":"error","name":"BatchIdNotFound","inputs":[{"name":"batchId","type":"string","internalType":"string"}]},{"type":"error","name":"BatchIdRequired","inputs":[]},{"type":"error","name":"ChildTokensNotBurned","inputs":[]},{"type":"error","name":"ERC1155InsufficientBalance","inputs":[{"name":"sender","type":"address","internalType":"address"},{"name":"balance","type":"uint256","internalType":"uint256"},{"name":"needed","type":"uint256","internalType":"uint256"},{"name":"tokenId","type":"uint256","internalType":"uint256"}]},{"type":"error","name":"ERC1155InvalidApprover","inputs":[{"name":"approver","type":"address","internalType":"address"}]},{"type":"error","name":"ERC1155InvalidArrayLength","inputs":[{"name":"idsLength","type":"uint256","internalType":"uint256"},{"name":"valuesLength","type":"uint256","internalType":"uint256"}]},{"type":"error","name":"ERC1155InvalidOperator","inputs":[{"name":"operator","type":"address","internalType":"address"}]},{"type":"error","name":"ERC1155InvalidReceiver","inputs":[{"name":"receiver","type":"address","internalType":"address"}]},{"type":"error","name":"ERC1155InvalidSender","inputs":[{"name":"sender","type":"address","internalType":"address"}]},{"type":"error","name":"ERC1155MissingApprovalForAll","inputs":[{"name":"operator","type":"address","internalType":"address"},{"name":"owner","type":"address","internalType":"address"}]},{"type":"error","name":"InvalidQuantity","inputs":[]},{"type":"error","name":"NotAuthorized","inputs":[]},{"type":"error","name":"OwnableInvalidOwner","inputs":[{"name":"owner","type":"address","internalType":"address"}]},{"type":"error","name":"OwnableUnauthorizedAccount","inputs":[{"name":"account","type":"address","internalType":"address"}]}],"bytecode":{"object":"0x6080346101365760208101906001600160401b03821181831017610122575f9160405252600254600181811c91168015610118575b602082101461010457601f81116100bc575b505f60025533156100a95760038054336001600160a01b03198216811790925560405191906001600160a01b03167f8be0079c531659141344cd1fd0a4f28419497f9722a3daafe3b4186f6b6457e05f80a36001600455612341908161013b8239f35b631e4fbdf760e01b5f525f60045260245ffd5b60025f52601f0160051c7f405787fa12a823e0f2b7631cc41b3ba8828b3321ca811111fa75cd3aa3bb5ace908101905b8181106100f95750610046565b5f81556001016100ec565b634e487b7160e01b5f52602260045260245ffd5b90607f1690610034565b634e487b7160e01b5f52604160045260245ffd5b5f80fdfe60806040526004361015610011575f80fd5b5f3560e01c8062fdd58e1461017357806301ffc9a71461016e5780630e89341c146101695780632c23b26e146101645780632eb2c2d61461015f578063322840011461015a5780634e1273f414610155578063715018a61461015057806383fc4e3d1461014b5780638da5cb5b14610146578063945b64c8146101415780639912627f1461013c578063a22cb46514610137578063ae0fb77814610132578063b32c4d8d1461012d578063b3e38a5014610128578063c5f4127a14610123578063cafcd5da1461011e578063e985e9c514610119578063f1d8645d14610114578063f242432a1461010f5763f2fde38b1461010a575f80fd5b611016565b610fbc565b610f2b565b610ec7565b610e77565b610d99565b610d28565b610cba565b610aae565b6109c8565b61091c565b610816565b6107ee565b610795565b61073a565b610685565b610634565b61055c565b610391565b6102a0565b6101fa565b61019c565b6001600160a01b0381160361018957565b5f80fd5b6004359061019a82610178565b565b346101895760403660031901126101895760206101df6004356101be81610178565b6024355f525f835260405f209060018060a01b03165f5260205260405f2090565b54604051908152f35b6001600160e01b031981160361018957565b34610189576020366003190112610189576020600435610219816101e8565b63ffffffff60e01b16636cdb3d1360e11b8114908115610257575b8115610246575b506040519015158152f35b6301ffc9a760e01b1490505f61023b565b6303a24d0760e21b81149150610234565b805180835260209291819084018484015e5f828201840152601f01601f1916010190565b90602061029d928181520190610268565b90565b3461018957602036600319011261018957600435805f52600560205260ff600560405f2001541615610352575f52600560205261034e610334610342600360405f20016040519283917f68747470733a2f2f76696f6c65742d7261696e792d746f61642d3537372e6d7960208401527170696e6174612e636c6f75642f697066732f60701b604084015260528301906110a0565b03601f198101835282610441565b6040519182918261028c565b0390f35b633c52612960e21b5f5260045260245ffd5b9181601f84011215610189578235916001600160401b038311610189576020838186019501011161018957565b34610189576020366003190112610189576004356001600160401b038111610189576103c1903690600401610364565b90604051828282376020818481016006815203019020549081156103ea57604051828152602090f35b60405163606ef64b60e01b8152928392506104089160048401611143565b0390fd5b634e487b7160e01b5f52604160045260245ffd5b61010081019081106001600160401b0382111761043c57604052565b61040c565b90601f801991011681019081106001600160401b0382111761043c57604052565b6040519061019a61010083610441565b6001600160401b03811161043c5760051b60200190565b92919061049581610472565b936104a36040519586610441565b602085838152019160051b810192831161018957905b8282106104c557505050565b81358152602091820191016104b9565b9080601f830112156101895781602061029d93359101610489565b6001600160401b03811161043c57601f01601f191660200190565b929192610517826104f0565b916105256040519384610441565b829481845281830111610189578281602093845f960137010152565b9080601f830112156101895781602061029d9335910161050b565b346101895760a03660031901126101895760043561057981610178565b6024359061058682610178565b6044356001600160401b038111610189576105a59036906004016104d5565b6064356001600160401b038111610189576105c49036906004016104d5565b90608435936001600160401b038511610189576105e86105ee953690600401610541565b93611154565b005b90602080835192838152019201905f5b81811061060d5750505090565b8251845260209384019390920191600101610600565b90602061029d9281815201906105f0565b3461018957602036600319011261018957600435805f52600560205260ff600560405f2001541615610352575f52600560205261034e610679600660405f20016111eb565b60405191829182610623565b34610189576040366003190112610189576004356001600160401b0381116101895736602382011215610189578060040135906106c182610472565b916106cf6040519384610441565b8083526024602084019160051b8301019136831161018957602401905b82821061072057836024356001600160401b0381116101895761034e9161071a6106799236906004016104d5565b90611294565b60208091833561072f81610178565b8152019101906106ec565b34610189575f36600319011261018957610752611bb1565b600380546001600160a01b031981169091555f906001600160a01b03167f8be0079c531659141344cd1fd0a4f28419497f9722a3daafe3b4186f6b6457e08280a3005b3461018957602036600319011261018957600435805f52600560205260ff600560405f2001541615610352575f52600560205261034e60ff600560405f20015460081c1660405191829182919091602081019215159052565b34610189575f366003190112610189576003546040516001600160a01b039091168152602090f35b346101895760403660031901126101895760043560243590805f52600560205260ff600560405f200154161561035257610851828233611bd8565b6040519182527f9e47581e97d9bff2e76599af02b29eacb476b0f2418c27d606e149b7d44df51b60203393a3005b9061029d916020815260e06108de6108c86108a885516101006020870152610120860190610268565b602086015160408601526040860151601f19868303016060870152610268565b6060850151848203601f19016080860152610268565b92608081015160a08401526108fc60a082015160c085019015159052565b60c0810151151583830152015190610100601f19828503019101526105f0565b3461018957602036600319011261018957600435606060e060405161094081610420565b8281525f602082015282604082015282808201525f60808201525f60a08201525f60c08201520152805f526005602052610989610985600560405f200160ff90541690565b1590565b6109b6576109aa6109a561034e925f52600560205260405f2090565b61132e565b6040519182918261087f565b633c52612960e21b5f5260045260245ffd5b34610189576040366003190112610189576004356109e581610178565b6024359081151590818303610189576001600160a01b038116928315610a6c57610a2d610a3e92335f52600160205260405f209060018060a01b03165f5260205260405f2090565b9060ff801983541691151516179055565b6040519081527f17307eab39ab6107e8899845ad3d59bd9653f200f220920489ca2b5937696c3160203392a3005b62ced3e160e81b5f525f60045260245ffd5b9181601f84011215610189578235916001600160401b038311610189576020808501948460051b01011161018957565b346101895760e036600319011261018957610ac761018d565b6024356044356001600160401b03811161018957610ae9903690600401610364565b9190926064356001600160401b03811161018957610b0b903690600401610364565b906084356001600160401b03811161018957610b2b903690600401610364565b9060a4356001600160401b03811161018957610b4b903690600401610a7e565b94909360c435986001600160401b038a116101895761034e9a610b75610b7d9b3690600401610a7e565b9a90996113c3565b6040519081529081906020820190565b90600182811c92168015610bbb575b6020831014610ba757565b634e487b7160e01b5f52602260045260245ffd5b91607f1691610b9c565b9060405191825f825492610bd884610b8d565b8084529360018116908115610c415750600114610bfd575b5061019a92500383610441565b90505f9291925260205f20905f915b818310610c2557505090602061019a928201015f610bf0565b6020919350806001915483858901015201910190918492610c0c565b90506020925061019a94915060ff191682840152151560051b8201015f610bf0565b9592610ca692610c9891610c8560c0989b9a979460e08b5260e08b0190610268565b9160208a015288820360408a0152610268565b908682036060880152610268565b956080850152151560a08401521515910152565b34610189576020366003190112610189576004355f52600560205260405f20610ce281610bc5565b9061034e600182015491610cf860028201610bc5565b93610d0560038301610bc5565b91600560048201549101549260405196879660ff808760081c1696169488610c63565b34610189576020366003190112610189576004356001600160401b038111610189573660238201121561018957602080610d6f61034e93369060248160040135910161050b565b604051928184925191829101835e8101600681520301902054604051918291829190602083019252565b3461018957608036600319011261018957600435610db681610178565b60243590610dc382610178565b604435606435926001600160a01b038316923384141580610e54575b610e45577fb4a1185473b458886a3d3056f172372438629a6f4fbfc04ad2dad0956b7b692691610e26610e409287868460405193610e1e602086610441565b5f8552611b2a565b6040519586526001600160a01b0316949081906020820190565b0390a4005b63ea8e4eb560e01b5f5260045ffd5b505f84815260016020908152604080832033845290915290205460ff1615610ddf565b34610189576040366003190112610189576020610ebf600435610e9981610178565b6024355f908152602081815260408083206001600160a01b039094168352929052205490565b604051908152f35b3461018957604036600319011261018957602060ff610f1f600435610eeb81610178565b60243590610ef882610178565b60018060a01b03165f526001845260405f209060018060a01b03165f5260205260405f2090565b54166040519015158152f35b346101895760a036600319011261018957600435610f4881610178565b6024356044356001600160401b03811161018957610f6a903690600401610364565b9190926064356001600160401b03811161018957610f8c903690600401610364565b90608435946001600160401b0386116101895761034e96610fb4610b7d973690600401610364565b9690956119c4565b346101895760a036600319011261018957600435610fd981610178565b60243590610fe682610178565b60443560643590608435936001600160401b038511610189576110106105ee953690600401610541565b93611b2a565b346101895760203660031901126101895760043561103381610178565b61103b611bb1565b6001600160a01b0316801561108d57600380546001600160a01b0319811683179091556001600160a01b03167f8be0079c531659141344cd1fd0a4f28419497f9722a3daafe3b4186f6b6457e05f80a3005b631e4fbdf760e01b5f525f60045260245ffd5b5f92918154916110af83610b8d565b92600181169081156110f757506001146110c857505050565b90919293505f5260205f205f905b8382106110e35750500190565b6001816020925484860152019101906110d6565b60ff191683525050811515909102019150565b6020908260405193849283378101600681520301902090565b908060209392818452848401375f828201840152601f01601f1916010190565b91602061029d938181520191611123565b939291906001600160a01b03851633811415806111c8575b6111b2576001600160a01b0382161561119f571561118d5761019a94611eac565b626a0d4560e21b5f525f60045260245ffd5b632bfa23e760e11b5f525f60045260245ffd5b63711bec9160e11b5f523360045260245260445ffd5b505f81815260016020908152604080832033845290915290205460ff161561116c565b90604051918281549182825260208201905f5260205f20925f5b81811061121a57505061019a92500383610441565b8454835260019485019487945060209093019201611205565b60405190611242602083610441565b5f808352366020840137565b9061125882610472565b6112656040519182610441565b8281528092611276601f1991610472565b0190602036910137565b634e487b7160e01b5f52603260045260245ffd5b919091805183518082036113195750506112ae815161124e565b905f5b8151811015611312578060051b906112f56020838501015160208489010151905f918252602082815260408084206001600160a01b03909316845291905290205490565b845182101561130d57602060019386010152016112b1565b611280565b5090925050565b635b05999160e01b5f5260045260245260445ffd5b9060405161133b81610420565b60e06113be6006839561134d81610bc5565b85526001810154602086015261136560028201610bc5565b604086015261137660038201610bc5565b6060860152600481015460808601526113b86113af60058301546113a661139d8260ff1690565b151560a08a0152565b60081c60ff1690565b151560c0870152565b016111eb565b910152565b969a99909793989492999591956113d8611bb1565b8a15611615576113e88b8861110a565b546115f9578086036114fc5788915f915f915b88831061150b57505050036114fc57600454998a986114198a611664565b600455611424610462565b93611430368d8a61050b565b855289602086015236906114439261050b565b604084015236906114539261050b565b6060820152426080820152600160a0820152600160c0820152611477368484610489565b60e082015261148e875f52600560205260405f2090565b906114989161180e565b856114a3888561110a565b556114ac611969565b6114b890868887611d68565b6040516001600160a01b0390941696939485946114d5948661197d565b037fa1f650e444302d3a6845d4f337c3d9f6b6a4ac6af9af4793cc5718641db35c5d91a390565b63524f409b60e01b5f5260045ffd5b9193509161151a848989611624565b359361152f61152a828686611624565b611634565b94611552610985600561154a845f52600560205260405f2090565b015460ff1690565b6109b6576115808661156b835f525f60205260405f2090565b9060018060a01b03165f5260205260405f2090565b549081156115eb577f9e47581e97d9bff2e76599af02b29eacb476b0f2418c27d606e149b7d44df51b6115dd6115b884600197611652565b986115c4858583611bd8565b604051918291888060a01b031695829190602083019252565b0390a30190918a93926113fb565b62fd4a9960e41b5f5260045ffd5b60405163937999ad60e01b8152806104088d8a60048401611143565b631dc9638760e31b5f5260045ffd5b919081101561130d5760051b0190565b3561029d81610178565b634e487b7160e01b5f52601160045260245ffd5b9190820180921161165f57565b61163e565b5f19811461165f5760010190565b81811061167d575050565b5f8155600101611672565b9190601f811161169757505050565b61019a925f5260205f20906020601f840160051c830193106116c1575b601f0160051c0190611672565b90915081906116b4565b91909182516001600160401b03811161043c576116f2816116ec8454610b8d565b84611688565b6020601f82116001146117315781906117229394955f92611726575b50508160011b915f199060031b1c19161790565b9055565b015190505f8061170e565b601f19821690611744845f5260205f2090565b915f5b81811061177e57509583600195969710611766575b505050811b019055565b01515f1960f88460031b161c191690555f808061175c565b9192602060018192868b015181550194019201611747565b8151916001600160401b03831161043c5768010000000000000000831161043c5760209082548484558085106117f3575b5001905f5260205f205f5b8381106117df5750505050565b6001906020845194019381840155016117d2565b61180890845f5285845f209182019101611672565b5f6117c7565b91909182519283516001600160401b03811161043c57611838816118328554610b8d565b85611688565b6020601f82116001146118f7579161186f8260e09360069561019a98995f926117265750508160011b915f199060031b1c19161790565b84555b6020810151600185015561188d6040820151600286016116cb565b61189e6060820151600386016116cb565b608081015160048501556118ee600585016118d16118bf60a0850151151590565b829060ff801983541691151516179055565b60c08301511515815461ff00191690151560081b61ff0016179055565b01519101611796565b601f1982169561190a855f5260205f2090565b965f5b81811061195157509261019a9697600695936001938360e09710611939575b505050811b018455611872565b01515f1960f88460031b161c191690555f808061192c565b8383015189556001909801976020938401930161190d565b60405190611978602083610441565b5f8252565b919061199191606084526060840191611123565b60208201929092528082036040909101528281526001600160fb1b0383116101895760209260051b809284830137010190565b94939295969091966119d4611bb1565b8615611615576119e4878961110a565b54611ae15793879693611a2e9693611aa3611a339a611adb95611a6f7fefa04a39db8ca42f7d5cca6b23834e618ca34f0da22ebd8a5e781f482fe700519a6004549e8f9d8e611664565b600455565b611a3b611233565b92611a50611a47610462565b958d369161050b565b8552866020860152611a63368a8a61050b565b6040860152369161050b565b6060830152426080830152600160a08301525f60c083015260e0820152611a9e8a5f52600560205260405f2090565b61180e565b87611aae878b61110a565b55611ac2611aba611969565b828a88611d68565b6040516001600160a01b03909516989495869586611afd565b0390a390565b60405163937999ad60e01b815280610408898b60048401611143565b90611b179061029d96949593606084526060840191611123565b9360208201526040818503910152611123565b92939290916001600160a01b0382163381141580611b8e575b6111b2576001600160a01b0384161561119f571561118d5761019a94611b8660405192600184526020840152604083019160018352606084015260808301604052565b929091611eac565b505f81815260016020908152604080832033845290915290205460ff1615611b43565b6003546001600160a01b03163303611bc557565b63118cdaa760e01b5f523360045260245ffd5b926001600160a01b03841692909190831561118d57611c1460405192600184526020840152604083019160018352606084015260808301604052565b91906020915f604051611c278582610441565b528151845190818103611d535750505f5b8251811015611cc8578060051b848082860101519187010151611c668961156b845f525f60205260405f2090565b54818110611c91578961156b6001959493611c8a9303935f525f60205260405f2090565b5501611c38565b6040516303dee4c560e01b81526001600160a01b038b16600482015260248101919091526044810182905260648101839052608490fd5b50945090915f939260018351148514611d1f579182015191015160408051928352602083019190915233917fc3d58168c5ae7397731d063d5bbf3d657854427343f4c083240f7aacaa2d0f6291819081015b0390a4565b50611d1a7f4a39dc06d4c0dbc64b70af90fd698a233a518aa5d07e595d983b8c0526c8f7fb91604051918291339583612082565b635b05999160e01b5f5260045260245260445ffd5b6001600160a01b0381169392909190841561119f57611da460405192600184526020840152604083019160018352606084015260808301604052565b928151845190818103611d535750505f5b8251811015611dfa578060019160051b611df2611dea8761156b602080868b010151958c010151945f525f60205260405f2090565b918254611652565b905501611db5565b5092919360018251145f14611e71576020828101518482015160408051928352928201525f9133917fc3d58168c5ae7397731d063d5bbf3d657854427343f4c083240f7aacaa2d0f629190a45b8051600103611e66579060208061019a95930151910151915f3361226d565b61019a935f3361213e565b5f6040517f4a39dc06d4c0dbc64b70af90fd698a233a518aa5d07e595d983b8c0526c8f7fb339180611ea4888883612082565b0390a4611e47565b9493929091938451825190818103611d535750506001600160a01b038681169586151595918516801515939192905f5b8451811015611fb5578060051b90898988602080868b010151958c01015192611f34575b93600194611f12575b50505001611edc565b611f2a9161156b611dea925f525f60205260405f2090565b90555f8981611f09565b50509091611f4d8d61156b835f525f60205260405f2090565b54828110611f7e578291898f611f75600197968f95039161156b855f525f60205260405f2090565b55909450611f00565b6040516303dee4c560e01b81526001600160a01b038f16600482015260248101919091526044810183905260648101829052608490fd5b5091989593929790965060018851145f146120485760208881015186820151604080519283529282015233917fc3d58168c5ae7397731d063d5bbf3d657854427343f4c083240f7aacaa2d0f6291a45b612011575b5050505050565b84516001036120375760208061202d960151920151923361226d565b5f8080808061200a565b6120439491923361213e565b61202d565b6040517f4a39dc06d4c0dbc64b70af90fd698a233a518aa5d07e595d983b8c0526c8f7fb33918061207a898d83612082565b0390a4612005565b909161209961029d936040845260408401906105f0565b9160208184039101526105f0565b90816020910312610189575161029d816101e8565b6001600160a01b0391821681529116602082015260a06040820181905261029d949193919261210192916120f391908601906105f0565b9084820360608601526105f0565b916080818403910152610268565b3d15612139573d90612120826104f0565b9161212e6040519384610441565b82523d5f602084013e565b606090565b9091949293853b612152575b505050505050565b60209361217491604051968795869563bc197c8160e01b8752600487016120bc565b03815f6001600160a01b0387165af15f9181612203575b506121c5575061219961210f565b80519190826121be57632bfa23e760e11b5f526001600160a01b03821660045260245ffd5b6020915001fd5b6001600160e01b0319166343e6837f60e01b016121e857505f808080808061214a565b632bfa23e760e11b5f526001600160a01b031660045260245ffd5b61222691925060203d60201161222d575b61221e8183610441565b8101906120a7565b905f61218b565b503d612214565b6001600160a01b039182168152911660208201526040810191909152606081019190915260a06080820181905261029d92910190610268565b9091949293853b61228057505050505050565b6020936122a291604051968795869563f23a6e6160e01b875260048701612234565b03815f6001600160a01b0387165af15f91816122ea575b506122c7575061219961210f565b6001600160e01b031916630dc5919f60e01b016121e857505f808080808061214a565b61230491925060203d60201161222d5761221e8183610441565b905f6122b956fea26469706673582212205b83bc5c5f2d367c2e0df5691ca3d8a90103ef5cbaf48459b4f68a9bc30f6f4a64736f6c634300081e0033","linkReferences":{}},"methodIdentifiers":{"balanceOf(address,uint256)":"00fdd58e","balanceOfBatch(address[],uint256[])":"4e1273f4","batchBalance(address,uint256)":"cafcd5da","batchIdToTokenId(string)":"b3e38a50","batches(uint256)":"b32c4d8d","burnBatch(uint256,uint256)":"945b64c8","getBatchMetadata(uint256)":"9912627f","getChildTokenIds(uint256)":"32284001","getTokenIdByBatchId(string)":"2c23b26e","isApprovedForAll(address,address)":"e985e9c5","isContainer(uint256)":"83fc4e3d","mintBatch(address,uint256,string,string,string)":"f1d8645d","mintContainer(address,uint256,string,string,string,uint256[],address[])":"ae0fb778","owner()":"8da5cb5b","renounceOwnership()":"715018a6","safeBatchTransferFrom(address,address,uint256[],uint256[],bytes)":"2eb2c2d6","safeTransferFrom(address,address,uint256,uint256,bytes)":"f242432a","setApprovalForAll(address,bool)":"a22cb465","supportsInterface(bytes4)":"01ffc9a7","transferBatch(address,address,uint256,uint256)":"c5f4127a","transferOwnership(address)":"f2fde38b","uri(uint256)":"0e89341c"},"id":36}